{
  "contractName": "PropertyFactory",
  "abi": [
    {
      "constant": true,
      "inputs": [
        {
          "name": "",
          "type": "uint256"
        }
      ],
      "name": "propertyToOwner",
      "outputs": [
        {
          "name": "",
          "type": "address"
        }
      ],
      "payable": false,
      "stateMutability": "view",
      "type": "function"
    },
    {
      "constant": true,
      "inputs": [
        {
          "name": "",
          "type": "uint256"
        }
      ],
      "name": "properties",
      "outputs": [
        {
          "name": "price",
          "type": "uint256"
        },
        {
          "name": "size",
          "type": "uint256"
        },
        {
          "name": "geoAddress",
          "type": "string"
        },
        {
          "name": "description",
          "type": "string"
        },
        {
          "name": "documents",
          "type": "string"
        },
        {
          "name": "nbRooms",
          "type": "uint256"
        },
        {
          "name": "selling",
          "type": "bool"
        }
      ],
      "payable": false,
      "stateMutability": "view",
      "type": "function"
    },
    {
      "constant": false,
      "inputs": [
        {
          "name": "_price",
          "type": "uint256"
        },
        {
          "name": "_size",
          "type": "uint256"
        },
        {
          "name": "_geoAddress",
          "type": "string"
        },
        {
          "name": "_description",
          "type": "string"
        },
        {
          "name": "_documents",
          "type": "string"
        },
        {
          "name": "_nbRooms",
          "type": "uint256"
        }
      ],
      "name": "post",
      "outputs": [],
      "payable": false,
      "stateMutability": "nonpayable",
      "type": "function"
    },
    {
      "constant": false,
      "inputs": [
        {
          "name": "_propertyId",
          "type": "uint256"
        }
      ],
      "name": "buy",
      "outputs": [],
      "payable": true,
      "stateMutability": "payable",
      "type": "function"
    },
    {
      "constant": true,
      "inputs": [
        {
          "name": "_propertyId",
          "type": "uint256"
        }
      ],
      "name": "isMyProperty",
      "outputs": [
        {
          "name": "",
          "type": "bool"
        }
      ],
      "payable": false,
      "stateMutability": "view",
      "type": "function"
    },
    {
      "constant": true,
      "inputs": [
        {
          "name": "_owner",
          "type": "address"
        }
      ],
      "name": "getPropertiesIdsByOwner",
      "outputs": [
        {
          "name": "",
          "type": "uint256[]"
        }
      ],
      "payable": false,
      "stateMutability": "view",
      "type": "function"
    },
    {
      "constant": true,
      "inputs": [],
      "name": "getAvailableProperties",
      "outputs": [
        {
          "components": [
            {
              "name": "price",
              "type": "uint256"
            },
            {
              "name": "size",
              "type": "uint256"
            },
            {
              "name": "geoAddress",
              "type": "string"
            },
            {
              "name": "description",
              "type": "string"
            },
            {
              "name": "documents",
              "type": "string"
            },
            {
              "name": "nbRooms",
              "type": "uint256"
            },
            {
              "name": "selling",
              "type": "bool"
            }
          ],
          "name": "",
          "type": "tuple[]"
        }
      ],
      "payable": false,
      "stateMutability": "view",
      "type": "function"
    },
    {
      "constant": false,
      "inputs": [],
      "name": "clearAllProperties",
      "outputs": [],
      "payable": false,
      "stateMutability": "nonpayable",
      "type": "function"
    }
  ],
  "bytecode": "0x608060405234801561001057600080fd5b5061148b806100206000396000f3fe60806040526004361061007b5760003560e01c8063cb6784e01161004e578063cb6784e01461014e578063d8ad578314610165578063d96a094a146101a2578063f7b10808146101be5761007b565b806306d88bbf146100805780630b56e383146100ab57806357260d78146100e8578063bda87cb514610125575b600080fd5b34801561008c57600080fd5b50610095610201565b6040516100a29190611209565b60405180910390f35b3480156100b757600080fd5b506100d260048036036100cd9190810190610e80565b6104b4565b6040516100df91906111ee565b60405180910390f35b3480156100f457600080fd5b5061010f600480360361010a9190810190610e80565b6104e7565b60405161011c919061124d565b60405180910390f35b34801561013157600080fd5b5061014c60048036036101479190810190610ea9565b610552565b005b34801561015a57600080fd5b506101636107c8565b005b34801561017157600080fd5b5061018c60048036036101879190810190610e57565b6107d7565b604051610199919061122b565b60405180910390f35b6101bc60048036036101b79190810190610e80565b610904565b005b3480156101ca57600080fd5b506101e560048036036101e09190810190610e80565b610a33565b6040516101f89796959493929190611268565b60405180910390f35b606080600080905060008090505b6000805490508110156104ab5782818151811061022857fe5b602002602001015160c001511561049e576000818154811061024657fe5b90600052602060002090600702016040518060e00160405290816000820154815260200160018201548152602001600282018054600181600116156101000203166002900480601f01602080910402602001604051908101604052809291908181526020018280546001816001161561010002031660029004801561030c5780601f106102e15761010080835404028352916020019161030c565b820191906000526020600020905b8154815290600101906020018083116102ef57829003601f168201915b50505050508152602001600382018054600181600116156101000203166002900480601f0160208091040260200160405190810160405280929190818152602001828054600181600116156101000203166002900480156103ae5780601f10610383576101008083540402835291602001916103ae565b820191906000526020600020905b81548152906001019060200180831161039157829003601f168201915b50505050508152602001600482018054600181600116156101000203166002900480601f0160208091040260200160405190810160405280929190818152602001828054600181600116156101000203166002900480156104505780601f1061042557610100808354040283529160200191610450565b820191906000526020600020905b81548152906001019060200180831161043357829003601f168201915b50505050508152602001600582015481526020016006820160009054906101000a900460ff16151515158152505083838151811061048a57fe5b602002602001018190525081806001019250505b808060010191505061020f565b50819250505090565b60016020528060005260406000206000915054906101000a900473ffffffffffffffffffffffffffffffffffffffff1681565b60003373ffffffffffffffffffffffffffffffffffffffff166001600084815260200190815260200160002060009054906101000a900473ffffffffffffffffffffffffffffffffffffffff1673ffffffffffffffffffffffffffffffffffffffff16149050919050565b6000806040518060e001604052808c81526020018b81526020018a8a8080601f016020809104026020016040519081016040528093929190818152602001838380828437600081840152601f19601f82011690508083019250505050505050815260200188888080601f016020809104026020016040519081016040528093929190818152602001838380828437600081840152601f19601f82011690508083019250505050505050815260200186868080601f016020809104026020016040519081016040528093929190818152602001838380828437600081840152601f19601f8201169050808301925050505050505081526020018481526020016001151581525090806001815401808255809150509060018203906000526020600020906007020160009091929091909150600082015181600001556020820151816001015560408201518160020190805190602001906106b2929190610c57565b5060608201518160030190805190602001906106cf929190610c57565b5060808201518160040190805190602001906106ec929190610c57565b5060a0820151816005015560c08201518160060160006101000a81548160ff02191690831515021790555050509050336001600083815260200190815260200160002060006101000a81548173ffffffffffffffffffffffffffffffffffffffff021916908373ffffffffffffffffffffffffffffffffffffffff160217905550600260003373ffffffffffffffffffffffffffffffffffffffff1673ffffffffffffffffffffffffffffffffffffffff1681526020019081526020016000206000815480929190600101919050555050505050505050505050565b6000806107d59190610cd7565b565b606080600260008473ffffffffffffffffffffffffffffffffffffffff1673ffffffffffffffffffffffffffffffffffffffff168152602001908152602001600020546040519080825280602002602001820160405280156108485781602001602082028038833980820191505090505b509050600080905060008090505b6000805490508110156108f9578473ffffffffffffffffffffffffffffffffffffffff166001600083815260200190815260200160002060009054906101000a900473ffffffffffffffffffffffffffffffffffffffff1673ffffffffffffffffffffffffffffffffffffffff1614156108ec57808383815181106108d757fe5b60200260200101818152505081806001019250505b8080600101915050610856565b508192505050919050565b6000818154811061091157fe5b906000526020600020906007020160000154341461092e57600080fd5b6001600082815260200190815260200160002060009054906101000a900473ffffffffffffffffffffffffffffffffffffffff1673ffffffffffffffffffffffffffffffffffffffff166108fc349081150290604051600060405180830381858888f193505050501580156109a7573d6000803e3d6000fd5b50336001600083815260200190815260200160002060006101000a81548173ffffffffffffffffffffffffffffffffffffffff021916908373ffffffffffffffffffffffffffffffffffffffff1602179055506000808281548110610a0857fe5b906000526020600020906007020160060160006101000a81548160ff02191690831515021790555050565b60008181548110610a4057fe5b9060005260206000209060070201600091509050806000015490806001015490806002018054600181600116156101000203166002900480601f016020809104026020016040519081016040528092919081815260200182805460018160011615610100020316600290048015610af85780601f10610acd57610100808354040283529160200191610af8565b820191906000526020600020905b815481529060010190602001808311610adb57829003601f168201915b505050505090806003018054600181600116156101000203166002900480601f016020809104026020016040519081016040528092919081815260200182805460018160011615610100020316600290048015610b965780601f10610b6b57610100808354040283529160200191610b96565b820191906000526020600020905b815481529060010190602001808311610b7957829003601f168201915b505050505090806004018054600181600116156101000203166002900480601f016020809104026020016040519081016040528092919081815260200182805460018160011615610100020316600290048015610c345780601f10610c0957610100808354040283529160200191610c34565b820191906000526020600020905b815481529060010190602001808311610c1757829003601f168201915b5050505050908060050154908060060160009054906101000a900460ff16905087565b828054600181600116156101000203166002900490600052602060002090601f016020900481019282601f10610c9857805160ff1916838001178555610cc6565b82800160010185558215610cc6579182015b82811115610cc5578251825591602001919060010190610caa565b5b509050610cd39190610cfb565b5090565b5080546000825560070290600052602060002090810190610cf89190610d20565b50565b610d1d91905b80821115610d19576000816000905550600101610d01565b5090565b90565b610d9891905b80821115610d94576000808201600090556001820160009055600282016000610d4f9190610d9b565b600382016000610d5f9190610d9b565b600482016000610d6f9190610d9b565b60058201600090556006820160006101000a81549060ff021916905550600701610d26565b5090565b90565b50805460018160011615610100020316600290046000825580601f10610dc15750610de0565b601f016020900490600052602060002090810190610ddf9190610cfb565b5b50565b600081359050610df281611423565b92915050565b60008083601f840112610e0a57600080fd5b8235905067ffffffffffffffff811115610e2357600080fd5b602083019150836001820283011115610e3b57600080fd5b9250929050565b600081359050610e518161143a565b92915050565b600060208284031215610e6957600080fd5b6000610e7784828501610de3565b91505092915050565b600060208284031215610e9257600080fd5b6000610ea084828501610e42565b91505092915050565b600080600080600080600080600060c08a8c031215610ec757600080fd5b6000610ed58c828d01610e42565b9950506020610ee68c828d01610e42565b98505060408a013567ffffffffffffffff811115610f0357600080fd5b610f0f8c828d01610df8565b975097505060608a013567ffffffffffffffff811115610f2e57600080fd5b610f3a8c828d01610df8565b955095505060808a013567ffffffffffffffff811115610f5957600080fd5b610f658c828d01610df8565b935093505060a0610f788c828d01610e42565b9150509295985092959850929598565b6000610f948383611126565b905092915050565b6000610fa883836111d0565b60208301905092915050565b610fbd81611397565b82525050565b6000610fce82611306565b610fd88185611341565b935083602082028501610fea856112ec565b8060005b8581101561102657848403895281516110078582610f88565b945061101283611327565b925060208a01995050600181019050610fee565b50829750879550505050505092915050565b600061104382611311565b61104d8185611352565b9350611058836112f9565b8060005b838110156110895781516110708882610f9c565b975061107b83611334565b92505060018101905061105c565b5085935050505092915050565b61109f816113a9565b82525050565b6110ae816113a9565b82525050565b60006110bf8261131c565b6110c98185611363565b93506110d98185602086016113df565b6110e281611412565b840191505092915050565b60006110f88261131c565b6111028185611374565b93506111128185602086016113df565b61111b81611412565b840191505092915050565b600060e08301600083015161113e60008601826111d0565b50602083015161115160208601826111d0565b506040830151848203604086015261116982826110b4565b9150506060830151848203606086015261118382826110b4565b9150506080830151848203608086015261119d82826110b4565b91505060a08301516111b260a08601826111d0565b5060c08301516111c560c0860182611096565b508091505092915050565b6111d9816113d5565b82525050565b6111e8816113d5565b82525050565b60006020820190506112036000830184610fb4565b92915050565b600060208201905081810360008301526112238184610fc3565b905092915050565b600060208201905081810360008301526112458184611038565b905092915050565b600060208201905061126260008301846110a5565b92915050565b600060e08201905061127d600083018a6111df565b61128a60208301896111df565b818103604083015261129c81886110ed565b905081810360608301526112b081876110ed565b905081810360808301526112c481866110ed565b90506112d360a08301856111df565b6112e060c08301846110a5565b98975050505050505050565b6000602082019050919050565b6000602082019050919050565b600081519050919050565b600081519050919050565b600081519050919050565b6000602082019050919050565b6000602082019050919050565b600082825260208201905092915050565b600082825260208201905092915050565b600082825260208201905092915050565b600082825260208201905092915050565b6000611390826113b5565b9050919050565b60006113a2826113b5565b9050919050565b60008115159050919050565b600073ffffffffffffffffffffffffffffffffffffffff82169050919050565b6000819050919050565b60005b838110156113fd5780820151818401526020810190506113e2565b8381111561140c576000848401525b50505050565b6000601f19601f8301169050919050565b61142c81611385565b811461143757600080fd5b50565b611443816113d5565b811461144e57600080fd5b5056fea265627a7a7230582081238aa19b9724979407300cbcb05f0e180c9b39b4af8269c241b7c412589fdc6c6578706572696d656e74616cf50037",
  "source": "pragma solidity ^0.5.8;\r\npragma experimental ABIEncoderV2;\r\n\r\ncontract PropertyFactory {\r\n\r\n    struct Property {\r\n        //uint256 id;\r\n        uint256 price;\r\n        uint256 size;\r\n        string geoAddress;\r\n        string description;\r\n        string documents;\r\n        uint256 nbRooms;\r\n        bool selling;\r\n    }\r\n\r\n    Property[] public properties;\r\n\r\n    mapping (uint => address payable) public propertyToOwner;\r\n    mapping (address => uint) ownerPropertyCount;\r\n\r\n    // mettre en vente\r\n    function post(uint256 _price, uint256 _size, string calldata _geoAddress,\r\n                  string calldata _description, string calldata _documents, uint256 _nbRooms) external {\r\n        //uint256 id = properties.length;\r\n        //Property memory property = Property(id, _price, _size, _geoAddress, _description,_documents, _nbRooms, true);\r\n        uint id = properties.push(Property(_price, _size, _geoAddress, _description,_documents, _nbRooms, true));\r\n        //properties.push(property);\r\n        propertyToOwner[id] = msg.sender;\r\n        ownerPropertyCount[msg.sender]++;\r\n    }\r\n\r\n    // achat d'une property\r\n    function buy(uint256 _propertyId) external payable {\r\n        require(msg.value == properties[_propertyId].price); // vérif\r\n        propertyToOwner[_propertyId].transfer(msg.value); // transfert\r\n        propertyToOwner[_propertyId] = msg.sender; // changement proprio\r\n        properties[_propertyId].selling = false; // plus en vente\r\n    }\r\n\r\n    // propr. de sender ?\r\n    function isMyProperty(uint256 _propertyId) external view returns (bool) {\r\n        return propertyToOwner[_propertyId] == msg.sender;\r\n    }\r\n\r\n    // tous les ID des properties de <_owner>\r\n    function getPropertiesIdsByOwner(address _owner) external view returns(uint[] memory) {\r\n        uint[] memory result = new uint[](ownerPropertyCount[_owner]);\r\n        uint counter = 0;\r\n        for (uint i = 0; i < properties.length; i++) {\r\n            if (propertyToOwner[i] == _owner) {\r\n                result[counter] = i;\r\n                counter++;\r\n            }\r\n        }\r\n        return result;\r\n    }\r\n\r\n    // propr. en vente\r\n    function getAvailableProperties() external view returns (Property[] memory) {\r\n        Property[] memory availableProperties;\r\n\r\n\t\tuint j = 0;\r\n        \r\n        for ( uint i = 0 ; i < properties.length ; i++ ) {\r\n            if (availableProperties[i].selling) {\r\n                availableProperties[j] = properties[i];\r\n\t\t\t\tj++;\r\n            }\r\n        }\r\n        return availableProperties;\r\n    }\r\n\r\n\tfunction clearAllProperties() external {\r\n\t\tdelete properties;\r\n\t}\r\n}\r\n",
  "sourcePath": "D:/ESGI5AL/Blockchain/Projet/Blockchain/contracts/PropertyFactory.sol",
  "compiler": {
    "name": "solc",
    "version": "0.5.8+commit.23d335f2.Emscripten.clang"
  },
  "schemaVersion": "3.0.16",
  "updatedAt": "2019-12-03T15:23:53.411Z",
  "devdoc": {
    "methods": {}
  },
  "userdoc": {
    "methods": {}
  }
}