{
  "contractName": "PropertyFactory",
  "abi": [
    {
      "constant": true,
      "inputs": [
        {
          "name": "",
          "type": "uint256"
        }
      ],
      "name": "propertyToOwner",
      "outputs": [
        {
          "name": "",
          "type": "address"
        }
      ],
      "payable": false,
      "stateMutability": "view",
      "type": "function"
    },
    {
      "constant": true,
      "inputs": [
        {
          "name": "",
          "type": "uint256"
        }
      ],
      "name": "properties",
      "outputs": [
        {
          "name": "price",
          "type": "uint256"
        },
        {
          "name": "size",
          "type": "uint256"
        },
        {
          "name": "geoAddress",
          "type": "bytes32"
        },
        {
          "name": "description",
          "type": "bytes32"
        },
        {
          "name": "documents",
          "type": "bytes32"
        },
        {
          "name": "nbRooms",
          "type": "uint256"
        },
        {
          "name": "selling",
          "type": "bool"
        }
      ],
      "payable": false,
      "stateMutability": "view",
      "type": "function"
    },
    {
      "constant": false,
      "inputs": [
        {
          "name": "_price",
          "type": "uint256"
        },
        {
          "name": "_size",
          "type": "uint256"
        },
        {
          "name": "_geoAddress",
          "type": "bytes32"
        },
        {
          "name": "_description",
          "type": "bytes32"
        },
        {
          "name": "_documents",
          "type": "bytes32"
        },
        {
          "name": "_nbRooms",
          "type": "uint256"
        }
      ],
      "name": "post",
      "outputs": [],
      "payable": false,
      "stateMutability": "nonpayable",
      "type": "function"
    },
    {
      "constant": false,
      "inputs": [
        {
          "name": "_propertyId",
          "type": "uint256"
        }
      ],
      "name": "buy",
      "outputs": [],
      "payable": true,
      "stateMutability": "payable",
      "type": "function"
    },
    {
      "constant": true,
      "inputs": [
        {
          "name": "_propertyId",
          "type": "uint256"
        }
      ],
      "name": "isMyProperty",
      "outputs": [
        {
          "name": "",
          "type": "bool"
        }
      ],
      "payable": false,
      "stateMutability": "view",
      "type": "function"
    },
    {
      "constant": true,
      "inputs": [
        {
          "name": "_owner",
          "type": "address"
        }
      ],
      "name": "getPropertiesIdsByOwner",
      "outputs": [
        {
          "name": "",
          "type": "uint256[]"
        }
      ],
      "payable": false,
      "stateMutability": "view",
      "type": "function"
    },
    {
      "constant": true,
      "inputs": [],
      "name": "getNbProperties",
      "outputs": [
        {
          "name": "",
          "type": "uint256"
        }
      ],
      "payable": false,
      "stateMutability": "view",
      "type": "function"
    },
    {
      "constant": false,
      "inputs": [],
      "name": "clearAllProperties",
      "outputs": [],
      "payable": false,
      "stateMutability": "nonpayable",
      "type": "function"
    }
  ],
  "bytecode": "0x608060405234801561001057600080fd5b50610b3d806100206000396000f3fe60806040526004361061007b5760003560e01c8063cb6784e01161004e578063cb6784e01461014e578063d8ad578314610165578063d96a094a146101a2578063f7b10808146101be5761007b565b806309d433aa146100805780630b56e383146100a95780631ea67fd5146100e657806357260d7814610111575b600080fd5b34801561008c57600080fd5b506100a760048036036100a291908101906107f8565b610201565b005b3480156100b557600080fd5b506100d060048036036100cb91908101906107cf565b61036f565b6040516100dd9190610942565b60405180910390f35b3480156100f257600080fd5b506100fb6103a2565b604051610108919061099a565b60405180910390f35b34801561011d57600080fd5b50610138600480360361013391908101906107cf565b6103ae565b604051610145919061097f565b60405180910390f35b34801561015a57600080fd5b50610163610419565b005b34801561017157600080fd5b5061018c600480360361018791908101906107a6565b610428565b604051610199919061095d565b60405180910390f35b6101bc60048036036101b791908101906107cf565b610555565b005b3480156101ca57600080fd5b506101e560048036036101e091908101906107cf565b610684565b6040516101f897969594939291906109b5565b60405180910390f35b6000806040518060e001604052808981526020018881526020018781526020018681526020018581526020018481526020016001151581525090806001815401808255809150509060018203906000526020600020906007020160009091929091909150600082015181600001556020820151816001015560408201518160020155606082015181600301556080820151816004015560a0820151816005015560c08201518160060160006101000a81548160ff02191690831515021790555050509050336001600083815260200190815260200160002060006101000a81548173ffffffffffffffffffffffffffffffffffffffff021916908373ffffffffffffffffffffffffffffffffffffffff160217905550600260003373ffffffffffffffffffffffffffffffffffffffff1673ffffffffffffffffffffffffffffffffffffffff1681526020019081526020016000206000815480929190600101919050555050505050505050565b60016020528060005260406000206000915054906101000a900473ffffffffffffffffffffffffffffffffffffffff1681565b60008080549050905090565b60003373ffffffffffffffffffffffffffffffffffffffff166001600084815260200190815260200160002060009054906101000a900473ffffffffffffffffffffffffffffffffffffffff1673ffffffffffffffffffffffffffffffffffffffff16149050919050565b60008061042691906106e0565b565b606080600260008473ffffffffffffffffffffffffffffffffffffffff1673ffffffffffffffffffffffffffffffffffffffff168152602001908152602001600020546040519080825280602002602001820160405280156104995781602001602082028038833980820191505090505b509050600080905060008090505b60008054905081101561054a578473ffffffffffffffffffffffffffffffffffffffff166001600083815260200190815260200160002060009054906101000a900473ffffffffffffffffffffffffffffffffffffffff1673ffffffffffffffffffffffffffffffffffffffff16141561053d578083838151811061052857fe5b60200260200101818152505081806001019250505b80806001019150506104a7565b508192505050919050565b6000818154811061056257fe5b906000526020600020906007020160000154341461057f57600080fd5b6001600082815260200190815260200160002060009054906101000a900473ffffffffffffffffffffffffffffffffffffffff1673ffffffffffffffffffffffffffffffffffffffff166108fc349081150290604051600060405180830381858888f193505050501580156105f8573d6000803e3d6000fd5b50336001600083815260200190815260200160002060006101000a81548173ffffffffffffffffffffffffffffffffffffffff021916908373ffffffffffffffffffffffffffffffffffffffff160217905550600080828154811061065957fe5b906000526020600020906007020160060160006101000a81548160ff02191690831515021790555050565b6000818154811061069157fe5b90600052602060002090600702016000915090508060000154908060010154908060020154908060030154908060040154908060050154908060060160009054906101000a900460ff16905087565b50805460008255600702906000526020600020908101906107019190610704565b50565b61076491905b8082111561076057600080820160009055600182016000905560028201600090556003820160009055600482016000905560058201600090556006820160006101000a81549060ff02191690555060070161070a565b5090565b90565b60008135905061077681610abe565b92915050565b60008135905061078b81610ad5565b92915050565b6000813590506107a081610aec565b92915050565b6000602082840312156107b857600080fd5b60006107c684828501610767565b91505092915050565b6000602082840312156107e157600080fd5b60006107ef84828501610791565b91505092915050565b60008060008060008060c0878903121561081157600080fd5b600061081f89828a01610791565b965050602061083089828a01610791565b955050604061084189828a0161077c565b945050606061085289828a0161077c565b935050608061086389828a0161077c565b92505060a061087489828a01610791565b9150509295509295509295565b600061088d8383610924565b60208301905092915050565b6108a281610a6c565b82525050565b60006108b382610a31565b6108bd8185610a49565b93506108c883610a24565b8060005b838110156108f95781516108e08882610881565b97506108eb83610a3c565b9250506001810190506108cc565b5085935050505092915050565b61090f81610a7e565b82525050565b61091e81610a8a565b82525050565b61092d81610ab4565b82525050565b61093c81610ab4565b82525050565b60006020820190506109576000830184610899565b92915050565b6000602082019050818103600083015261097781846108a8565b905092915050565b60006020820190506109946000830184610906565b92915050565b60006020820190506109af6000830184610933565b92915050565b600060e0820190506109ca600083018a610933565b6109d76020830189610933565b6109e46040830188610915565b6109f16060830187610915565b6109fe6080830186610915565b610a0b60a0830185610933565b610a1860c0830184610906565b98975050505050505050565b6000602082019050919050565b600081519050919050565b6000602082019050919050565b600082825260208201905092915050565b6000610a6582610a94565b9050919050565b6000610a7782610a94565b9050919050565b60008115159050919050565b6000819050919050565b600073ffffffffffffffffffffffffffffffffffffffff82169050919050565b6000819050919050565b610ac781610a5a565b8114610ad257600080fd5b50565b610ade81610a8a565b8114610ae957600080fd5b50565b610af581610ab4565b8114610b0057600080fd5b5056fea265627a7a723058204f5ccb5a9a46c3214b44d960754fecffd9e0058cf96dddf0c254b6fb06f68d9d6c6578706572696d656e74616cf50037",
  "source": "pragma solidity ^0.5.8;\r\npragma experimental ABIEncoderV2;\r\n\r\ncontract PropertyFactory {\r\n\r\n    struct Property {\r\n        //uint256 id;\r\n        uint256 price;\r\n        uint256 size;\r\n        bytes32 geoAddress;\r\n        bytes32 description;\r\n        bytes32 documents;\r\n        uint256 nbRooms;\r\n        bool selling;\r\n    }\r\n\r\n    Property[] public properties;\r\n\r\n    mapping (uint => address payable) public propertyToOwner;\r\n    mapping (address => uint) ownerPropertyCount;\r\n\r\n    // mettre en vente\r\n    function post(uint256 _price, uint256 _size, bytes32 _geoAddress,\r\n                  bytes32 _description, bytes32 _documents, uint256 _nbRooms) external {\r\n        //uint256 id = properties.length;\r\n        //Property memory property = Property(id, _price, _size, _geoAddress, _description,_documents, _nbRooms, true);\r\n        uint id = properties.push(Property(_price, _size, _geoAddress, _description,_documents, _nbRooms, true));\r\n        //properties.push(property);\r\n        propertyToOwner[id] = msg.sender;\r\n        ownerPropertyCount[msg.sender]++;\r\n    }\r\n\r\n    // achat d'une property\r\n    function buy(uint256 _propertyId) external payable {\r\n        require(msg.value == properties[_propertyId].price); // vérif\r\n        propertyToOwner[_propertyId].transfer(msg.value); // transfert\r\n        propertyToOwner[_propertyId] = msg.sender; // changement proprio\r\n        properties[_propertyId].selling = false; // plus en vente\r\n    }\r\n\r\n    // propr. de sender ?\r\n    function isMyProperty(uint256 _propertyId) external view returns (bool) {\r\n        return propertyToOwner[_propertyId] == msg.sender;\r\n    }\r\n\r\n    // tous les ID des properties de <_owner>\r\n    function getPropertiesIdsByOwner(address _owner) external view returns(uint[] memory) {\r\n        uint[] memory result = new uint[](ownerPropertyCount[_owner]);\r\n        uint counter = 0;\r\n        for (uint i = 0; i < properties.length; i++) {\r\n            if (propertyToOwner[i] == _owner) {\r\n                result[counter] = i;\r\n                counter++;\r\n            }\r\n        }\r\n        return result;\r\n    }\r\n\r\n    function getNbProperties() external view returns (uint) {\r\n        return properties.length;\r\n    }\r\n\r\n    // propr. en vente\r\n    /*function getAvailableProperties() external view returns (Property[] memory) {\r\n        Property[] memory availableProperties;\r\n\r\n\t\tuint j = 0;\r\n        \r\n        for ( uint i = 0 ; i < properties.length ; i++ ) {\r\n            if (availableProperties[i].selling) {\r\n                availableProperties[j] = properties[i];\r\n\t\t\t\tj++;\r\n            }\r\n        }\r\n        return availableProperties;\r\n    }*/\r\n\r\n\tfunction clearAllProperties() external {\r\n\t\tdelete properties;\r\n\t}\r\n}\r\n",
  "sourcePath": "D:/Documents/ESGI/blockchain/projet/contracts/PropertyFactory.sol",
  "compiler": {
    "name": "solc",
    "version": "0.5.8+commit.23d335f2.Emscripten.clang"
  },
  "schemaVersion": "3.0.16",
  "updatedAt": "2019-12-04T14:30:48.022Z",
  "devdoc": {
    "methods": {}
  },
  "userdoc": {
    "methods": {}
  }
}