{
  "contractName": "PropertyFactory",
  "abi": [
    {
      "constant": true,
      "inputs": [
        {
          "name": "",
          "type": "uint256"
        }
      ],
      "name": "propertyToOwner",
      "outputs": [
        {
          "name": "",
          "type": "address"
        }
      ],
      "payable": false,
      "stateMutability": "view",
      "type": "function"
    },
    {
      "constant": true,
      "inputs": [
        {
          "name": "",
          "type": "uint256"
        }
      ],
      "name": "properties",
      "outputs": [
        {
          "name": "price",
          "type": "uint256"
        },
        {
          "name": "size",
          "type": "uint256"
        },
        {
          "name": "geoAddress",
          "type": "string"
        },
        {
          "name": "description",
          "type": "string"
        },
        {
          "name": "documents",
          "type": "string"
        },
        {
          "name": "nbRooms",
          "type": "uint256"
        },
        {
          "name": "selling",
          "type": "bool"
        }
      ],
      "payable": false,
      "stateMutability": "view",
      "type": "function"
    },
    {
      "constant": false,
      "inputs": [
        {
          "name": "_price",
          "type": "uint256"
        },
        {
          "name": "_size",
          "type": "uint256"
        },
        {
          "name": "_geoAddress",
          "type": "string"
        },
        {
          "name": "_description",
          "type": "string"
        },
        {
          "name": "_documents",
          "type": "string"
        },
        {
          "name": "_nbRooms",
          "type": "uint256"
        }
      ],
      "name": "post",
      "outputs": [],
      "payable": false,
      "stateMutability": "nonpayable",
      "type": "function"
    },
    {
      "constant": false,
      "inputs": [
        {
          "name": "_propertyId",
          "type": "uint256"
        }
      ],
      "name": "buy",
      "outputs": [],
      "payable": true,
      "stateMutability": "payable",
      "type": "function"
    },
    {
      "constant": true,
      "inputs": [
        {
          "name": "_propertyId",
          "type": "uint256"
        }
      ],
      "name": "isMyProperty",
      "outputs": [
        {
          "name": "",
          "type": "bool"
        }
      ],
      "payable": false,
      "stateMutability": "view",
      "type": "function"
    },
    {
      "constant": true,
      "inputs": [
        {
          "name": "_owner",
          "type": "address"
        }
      ],
      "name": "getPropertiesIdsByOwner",
      "outputs": [
        {
          "name": "",
          "type": "uint256[]"
        }
      ],
      "payable": false,
      "stateMutability": "view",
      "type": "function"
    },
    {
      "constant": true,
      "inputs": [],
      "name": "getNbProperties",
      "outputs": [
        {
          "name": "",
          "type": "uint256"
        }
      ],
      "payable": false,
      "stateMutability": "view",
      "type": "function"
    },
    {
      "constant": false,
      "inputs": [],
      "name": "clearAllProperties",
      "outputs": [],
      "payable": false,
      "stateMutability": "nonpayable",
      "type": "function"
    }
  ],
  "bytecode": "0x608060405234801561001057600080fd5b5061101b806100206000396000f3fe60806040526004361061007b5760003560e01c8063cb6784e01161004e578063cb6784e01461014e578063d8ad578314610165578063d96a094a146101a2578063f7b10808146101be5761007b565b80630b56e383146100805780631ea67fd5146100bd57806357260d78146100e8578063bda87cb514610125575b600080fd5b34801561008c57600080fd5b506100a760048036036100a29190810190610bd9565b610201565b6040516100b49190610dcc565b60405180910390f35b3480156100c957600080fd5b506100d2610234565b6040516100df9190610e24565b60405180910390f35b3480156100f457600080fd5b5061010f600480360361010a9190810190610bd9565b610240565b60405161011c9190610e09565b60405180910390f35b34801561013157600080fd5b5061014c60048036036101479190810190610c02565b6102ab565b005b34801561015a57600080fd5b50610163610521565b005b34801561017157600080fd5b5061018c60048036036101879190810190610bb0565b610530565b6040516101999190610de7565b60405180910390f35b6101bc60048036036101b79190810190610bd9565b61065d565b005b3480156101ca57600080fd5b506101e560048036036101e09190810190610bd9565b61078c565b6040516101f89796959493929190610e3f565b60405180910390f35b60016020528060005260406000206000915054906101000a900473ffffffffffffffffffffffffffffffffffffffff1681565b60008080549050905090565b60003373ffffffffffffffffffffffffffffffffffffffff166001600084815260200190815260200160002060009054906101000a900473ffffffffffffffffffffffffffffffffffffffff1673ffffffffffffffffffffffffffffffffffffffff16149050919050565b6000806040518060e001604052808c81526020018b81526020018a8a8080601f016020809104026020016040519081016040528093929190818152602001838380828437600081840152601f19601f82011690508083019250505050505050815260200188888080601f016020809104026020016040519081016040528093929190818152602001838380828437600081840152601f19601f82011690508083019250505050505050815260200186868080601f016020809104026020016040519081016040528093929190818152602001838380828437600081840152601f19601f82011690508083019250505050505050815260200184815260200160011515815250908060018154018082558091505090600182039060005260206000209060070201600090919290919091506000820151816000015560208201518160010155604082015181600201908051906020019061040b9291906109b0565b5060608201518160030190805190602001906104289291906109b0565b5060808201518160040190805190602001906104459291906109b0565b5060a0820151816005015560c08201518160060160006101000a81548160ff02191690831515021790555050509050336001600083815260200190815260200160002060006101000a81548173ffffffffffffffffffffffffffffffffffffffff021916908373ffffffffffffffffffffffffffffffffffffffff160217905550600260003373ffffffffffffffffffffffffffffffffffffffff1673ffffffffffffffffffffffffffffffffffffffff1681526020019081526020016000206000815480929190600101919050555050505050505050505050565b60008061052e9190610a30565b565b606080600260008473ffffffffffffffffffffffffffffffffffffffff1673ffffffffffffffffffffffffffffffffffffffff168152602001908152602001600020546040519080825280602002602001820160405280156105a15781602001602082028038833980820191505090505b509050600080905060008090505b600080549050811015610652578473ffffffffffffffffffffffffffffffffffffffff166001600083815260200190815260200160002060009054906101000a900473ffffffffffffffffffffffffffffffffffffffff1673ffffffffffffffffffffffffffffffffffffffff161415610645578083838151811061063057fe5b60200260200101818152505081806001019250505b80806001019150506105af565b508192505050919050565b6000818154811061066a57fe5b906000526020600020906007020160000154341461068757600080fd5b6001600082815260200190815260200160002060009054906101000a900473ffffffffffffffffffffffffffffffffffffffff1673ffffffffffffffffffffffffffffffffffffffff166108fc349081150290604051600060405180830381858888f19350505050158015610700573d6000803e3d6000fd5b50336001600083815260200190815260200160002060006101000a81548173ffffffffffffffffffffffffffffffffffffffff021916908373ffffffffffffffffffffffffffffffffffffffff160217905550600080828154811061076157fe5b906000526020600020906007020160060160006101000a81548160ff02191690831515021790555050565b6000818154811061079957fe5b9060005260206000209060070201600091509050806000015490806001015490806002018054600181600116156101000203166002900480601f0160208091040260200160405190810160405280929190818152602001828054600181600116156101000203166002900480156108515780601f1061082657610100808354040283529160200191610851565b820191906000526020600020905b81548152906001019060200180831161083457829003601f168201915b505050505090806003018054600181600116156101000203166002900480601f0160208091040260200160405190810160405280929190818152602001828054600181600116156101000203166002900480156108ef5780601f106108c4576101008083540402835291602001916108ef565b820191906000526020600020905b8154815290600101906020018083116108d257829003601f168201915b505050505090806004018054600181600116156101000203166002900480601f01602080910402602001604051908101604052809291908181526020018280546001816001161561010002031660029004801561098d5780601f106109625761010080835404028352916020019161098d565b820191906000526020600020905b81548152906001019060200180831161097057829003601f168201915b5050505050908060050154908060060160009054906101000a900460ff16905087565b828054600181600116156101000203166002900490600052602060002090601f016020900481019282601f106109f157805160ff1916838001178555610a1f565b82800160010185558215610a1f579182015b82811115610a1e578251825591602001919060010190610a03565b5b509050610a2c9190610a54565b5090565b5080546000825560070290600052602060002090810190610a519190610a79565b50565b610a7691905b80821115610a72576000816000905550600101610a5a565b5090565b90565b610af191905b80821115610aed576000808201600090556001820160009055600282016000610aa89190610af4565b600382016000610ab89190610af4565b600482016000610ac89190610af4565b60058201600090556006820160006101000a81549060ff021916905550600701610a7f565b5090565b90565b50805460018160011615610100020316600290046000825580601f10610b1a5750610b39565b601f016020900490600052602060002090810190610b389190610a54565b5b50565b600081359050610b4b81610fb3565b92915050565b60008083601f840112610b6357600080fd5b8235905067ffffffffffffffff811115610b7c57600080fd5b602083019150836001820283011115610b9457600080fd5b9250929050565b600081359050610baa81610fca565b92915050565b600060208284031215610bc257600080fd5b6000610bd084828501610b3c565b91505092915050565b600060208284031215610beb57600080fd5b6000610bf984828501610b9b565b91505092915050565b600080600080600080600080600060c08a8c031215610c2057600080fd5b6000610c2e8c828d01610b9b565b9950506020610c3f8c828d01610b9b565b98505060408a013567ffffffffffffffff811115610c5c57600080fd5b610c688c828d01610b51565b975097505060608a013567ffffffffffffffff811115610c8757600080fd5b610c938c828d01610b51565b955095505060808a013567ffffffffffffffff811115610cb257600080fd5b610cbe8c828d01610b51565b935093505060a0610cd18c828d01610b9b565b9150509295985092959850929598565b6000610ced8383610dae565b60208301905092915050565b610d0281610f27565b82525050565b6000610d1382610ed0565b610d1d8185610ef3565b9350610d2883610ec3565b8060005b83811015610d59578151610d408882610ce1565b9750610d4b83610ee6565b925050600181019050610d2c565b5085935050505092915050565b610d6f81610f39565b82525050565b6000610d8082610edb565b610d8a8185610f04565b9350610d9a818560208601610f6f565b610da381610fa2565b840191505092915050565b610db781610f65565b82525050565b610dc681610f65565b82525050565b6000602082019050610de16000830184610cf9565b92915050565b60006020820190508181036000830152610e018184610d08565b905092915050565b6000602082019050610e1e6000830184610d66565b92915050565b6000602082019050610e396000830184610dbd565b92915050565b600060e082019050610e54600083018a610dbd565b610e616020830189610dbd565b8181036040830152610e738188610d75565b90508181036060830152610e878187610d75565b90508181036080830152610e9b8186610d75565b9050610eaa60a0830185610dbd565b610eb760c0830184610d66565b98975050505050505050565b6000602082019050919050565b600081519050919050565b600081519050919050565b6000602082019050919050565b600082825260208201905092915050565b600082825260208201905092915050565b6000610f2082610f45565b9050919050565b6000610f3282610f45565b9050919050565b60008115159050919050565b600073ffffffffffffffffffffffffffffffffffffffff82169050919050565b6000819050919050565b60005b83811015610f8d578082015181840152602081019050610f72565b83811115610f9c576000848401525b50505050565b6000601f19601f8301169050919050565b610fbc81610f15565b8114610fc757600080fd5b50565b610fd381610f65565b8114610fde57600080fd5b5056fea265627a7a72305820ea1534c7731745ccecafcca3bbaff67fa33ad873c324c819e795220958dbf0406c6578706572696d656e74616cf50037",
  "source": "pragma solidity ^0.5.8;\r\npragma experimental ABIEncoderV2;\r\n\r\ncontract PropertyFactory {\r\n\r\n    struct Property {\r\n        //uint256 id;\r\n        uint256 price;\r\n        uint256 size;\r\n        string geoAddress;\r\n        string description;\r\n        string documents;\r\n        uint256 nbRooms;\r\n        bool selling;\r\n    }\r\n\r\n    Property[] public properties;\r\n\r\n    mapping (uint => address payable) public propertyToOwner;\r\n    mapping (address => uint) ownerPropertyCount;\r\n\r\n    // mettre en vente\r\n    function post(uint256 _price, uint256 _size, string calldata _geoAddress,\r\n                  string calldata _description, string calldata _documents, uint256 _nbRooms) external {\r\n        //uint256 id = properties.length;\r\n        //Property memory property = Property(id, _price, _size, _geoAddress, _description,_documents, _nbRooms, true);\r\n        uint id = properties.push(Property(_price, _size, _geoAddress, _description,_documents, _nbRooms, true));\r\n        //properties.push(property);\r\n        propertyToOwner[id] = msg.sender;\r\n        ownerPropertyCount[msg.sender]++;\r\n    }\r\n\r\n    // achat d'une property\r\n    function buy(uint256 _propertyId) external payable {\r\n        require(msg.value == properties[_propertyId].price); // vérif\r\n        propertyToOwner[_propertyId].transfer(msg.value); // transfert\r\n        propertyToOwner[_propertyId] = msg.sender; // changement proprio\r\n        properties[_propertyId].selling = false; // plus en vente\r\n    }\r\n\r\n    // propr. de sender ?\r\n    function isMyProperty(uint256 _propertyId) external view returns (bool) {\r\n        return propertyToOwner[_propertyId] == msg.sender;\r\n    }\r\n\r\n    // tous les ID des properties de <_owner>\r\n    function getPropertiesIdsByOwner(address _owner) external view returns(uint[] memory) {\r\n        uint[] memory result = new uint[](ownerPropertyCount[_owner]);\r\n        uint counter = 0;\r\n        for (uint i = 0; i < properties.length; i++) {\r\n            if (propertyToOwner[i] == _owner) {\r\n                result[counter] = i;\r\n                counter++;\r\n            }\r\n        }\r\n        return result;\r\n    }\r\n\r\n    function getNbProperties() external view returns (uint) {\r\n        return properties.length;\r\n    }\r\n\r\n    // propr. en vente\r\n    /*function getAvailableProperties() external view returns (Property[] memory) {\r\n        Property[] memory availableProperties;\r\n\r\n\t\tuint j = 0;\r\n        \r\n        for ( uint i = 0 ; i < properties.length ; i++ ) {\r\n            if (availableProperties[i].selling) {\r\n                availableProperties[j] = properties[i];\r\n\t\t\t\tj++;\r\n            }\r\n        }\r\n        return availableProperties;\r\n    }*/\r\n\r\n\tfunction clearAllProperties() external {\r\n\t\tdelete properties;\r\n\t}\r\n}\r\n",
  "sourcePath": "D:/Documents/ESGI/blockchain/projet/contracts/PropertyFactory.sol",
  "compiler": {
    "name": "solc",
    "version": "0.5.8+commit.23d335f2.Emscripten.clang"
  },
  "schemaVersion": "3.0.16",
  "updatedAt": "2019-12-04T13:54:44.968Z",
  "devdoc": {
    "methods": {}
  },
  "userdoc": {
    "methods": {}
  }
}