{
  "contractName": "PropertyFactory",
  "abi": [
    {
      "constant": true,
      "inputs": [
        {
          "name": "",
          "type": "uint256"
        }
      ],
      "name": "properties",
      "outputs": [
        {
          "name": "price",
          "type": "uint256"
        },
        {
          "name": "size",
          "type": "uint256"
        },
        {
          "name": "geoAddress",
          "type": "string"
        },
        {
          "name": "description",
          "type": "string"
        },
        {
          "name": "documents",
          "type": "string"
        },
        {
          "name": "nbRooms",
          "type": "uint256"
        },
        {
          "name": "selling",
          "type": "bool"
        },
        {
          "name": "owner",
          "type": "address"
        }
      ],
      "payable": false,
      "stateMutability": "view",
      "type": "function"
    },
    {
      "constant": false,
      "inputs": [
        {
          "name": "_price",
          "type": "uint256"
        },
        {
          "name": "_size",
          "type": "uint256"
        },
        {
          "name": "_geoAddress",
          "type": "string"
        },
        {
          "name": "_description",
          "type": "string"
        },
        {
          "name": "_documents",
          "type": "string"
        },
        {
          "name": "_nbRooms",
          "type": "uint256"
        }
      ],
      "name": "post",
      "outputs": [
        {
          "name": "",
          "type": "uint256"
        }
      ],
      "payable": false,
      "stateMutability": "nonpayable",
      "type": "function"
    },
    {
      "constant": false,
      "inputs": [
        {
          "name": "_propertyId",
          "type": "uint256"
        }
      ],
      "name": "buy",
      "outputs": [],
      "payable": true,
      "stateMutability": "payable",
      "type": "function"
    },
    {
      "constant": true,
      "inputs": [
        {
          "name": "_propertyId",
          "type": "uint256"
        }
      ],
      "name": "isMyProperty",
      "outputs": [
        {
          "name": "",
          "type": "bool"
        }
      ],
      "payable": false,
      "stateMutability": "view",
      "type": "function"
    },
    {
      "constant": true,
      "inputs": [],
      "name": "getNbProperties",
      "outputs": [
        {
          "name": "",
          "type": "uint256"
        }
      ],
      "payable": false,
      "stateMutability": "view",
      "type": "function"
    },
    {
      "constant": false,
      "inputs": [],
      "name": "clearAllProperties",
      "outputs": [],
      "payable": false,
      "stateMutability": "nonpayable",
      "type": "function"
    }
  ],
  "bytecode": "0x608060405234801561001057600080fd5b50610cff806100206000396000f3fe6080604052600436106100555760003560e01c80631ea67fd51461005a57806357260d7814610085578063bda87cb5146100d8578063cb6784e01461023a578063d96a094a14610251578063f7b108081461027f575b600080fd5b34801561006657600080fd5b5061006f61045e565b6040518082815260200191505060405180910390f35b34801561009157600080fd5b506100be600480360360208110156100a857600080fd5b810190808035906020019092919050505061046a565b604051808215151515815260200191505060405180910390f35b3480156100e457600080fd5b50610224600480360360c08110156100fb57600080fd5b8101908080359060200190929190803590602001909291908035906020019064010000000081111561012c57600080fd5b82018360208201111561013e57600080fd5b8035906020019184600183028401116401000000008311171561016057600080fd5b90919293919293908035906020019064010000000081111561018157600080fd5b82018360208201111561019357600080fd5b803590602001918460018302840111640100000000831117156101b557600080fd5b9091929391929390803590602001906401000000008111156101d657600080fd5b8201836020820111156101e857600080fd5b8035906020019184600183028401116401000000008311171561020a57600080fd5b9091929391929390803590602001909291905050506104e0565b6040518082815260200191505060405180910390f35b34801561024657600080fd5b5061024f610719565b005b61027d6004803603602081101561026757600080fd5b8101908080359060200190929190505050610728565b005b34801561028b57600080fd5b506102b8600480360360208110156102a257600080fd5b81019080803590602001909291905050506108d6565b60405180898152602001888152602001806020018060200180602001878152602001861515151581526020018573ffffffffffffffffffffffffffffffffffffffff1673ffffffffffffffffffffffffffffffffffffffff16815260200184810384528a818151815260200191508051906020019080838360005b8381101561034e578082015181840152602081019050610333565b50505050905090810190601f16801561037b5780820380516001836020036101000a031916815260200191505b50848103835289818151815260200191508051906020019080838360005b838110156103b4578082015181840152602081019050610399565b50505050905090810190601f1680156103e15780820380516001836020036101000a031916815260200191505b50848103825288818151815260200191508051906020019080838360005b8381101561041a5780820151818401526020810190506103ff565b50505050905090810190601f1680156104475780820380516001836020036101000a031916815260200191505b509b50505050505050505050505060405180910390f35b60008080549050905090565b60003373ffffffffffffffffffffffffffffffffffffffff166000838154811061049057fe5b906000526020600020906007020160060160019054906101000a900473ffffffffffffffffffffffffffffffffffffffff1673ffffffffffffffffffffffffffffffffffffffff16149050919050565b6000806040518061010001604052808c81526020018b81526020018a8a8080601f016020809104026020016040519081016040528093929190818152602001838380828437600081840152601f19601f82011690508083019250505050505050815260200188888080601f016020809104026020016040519081016040528093929190818152602001838380828437600081840152601f19601f82011690508083019250505050505050815260200186868080601f016020809104026020016040519081016040528093929190818152602001838380828437600081840152601f19601f8201169050808301925050505050505081526020018481526020016001151581526020013373ffffffffffffffffffffffffffffffffffffffff16815250908060018154018082558091505090600182039060005260206000209060070201600090919290919091506000820151816000015560208201518160010155604082015181600201908051906020019061065d929190610b20565b50606082015181600301908051906020019061067a929190610b20565b506080820151816004019080519060200190610697929190610b20565b5060a0820151816005015560c08201518160060160006101000a81548160ff02191690831515021790555060e08201518160060160016101000a81548173ffffffffffffffffffffffffffffffffffffffff021916908373ffffffffffffffffffffffffffffffffffffffff1602179055505050509998505050505050505050565b6000806107269190610ba0565b565b6000818154811061073557fe5b90600052602060002090600702016000015434146107bb576040517f08c379a00000000000000000000000000000000000000000000000000000000081526004018080602001828103825260178152602001807f45727265757220707269782070726f707269c3a974c3a900000000000000000081525060200191505060405180910390fd5b600081815481106107c857fe5b906000526020600020906007020160060160019054906101000a900473ffffffffffffffffffffffffffffffffffffffff1673ffffffffffffffffffffffffffffffffffffffff166108fc349081150290604051600060405180830381858888f1935050505015801561083f573d6000803e3d6000fd5b50336000828154811061084e57fe5b906000526020600020906007020160060160016101000a81548173ffffffffffffffffffffffffffffffffffffffff021916908373ffffffffffffffffffffffffffffffffffffffff16021790555060008082815481106108ab57fe5b906000526020600020906007020160060160006101000a81548160ff02191690831515021790555050565b600081815481106108e357fe5b9060005260206000209060070201600091509050806000015490806001015490806002018054600181600116156101000203166002900480601f01602080910402602001604051908101604052809291908181526020018280546001816001161561010002031660029004801561099b5780601f106109705761010080835404028352916020019161099b565b820191906000526020600020905b81548152906001019060200180831161097e57829003601f168201915b505050505090806003018054600181600116156101000203166002900480601f016020809104026020016040519081016040528092919081815260200182805460018160011615610100020316600290048015610a395780601f10610a0e57610100808354040283529160200191610a39565b820191906000526020600020905b815481529060010190602001808311610a1c57829003601f168201915b505050505090806004018054600181600116156101000203166002900480601f016020809104026020016040519081016040528092919081815260200182805460018160011615610100020316600290048015610ad75780601f10610aac57610100808354040283529160200191610ad7565b820191906000526020600020905b815481529060010190602001808311610aba57829003601f168201915b5050505050908060050154908060060160009054906101000a900460ff16908060060160019054906101000a900473ffffffffffffffffffffffffffffffffffffffff16905088565b828054600181600116156101000203166002900490600052602060002090601f016020900481019282601f10610b6157805160ff1916838001178555610b8f565b82800160010185558215610b8f579182015b82811115610b8e578251825591602001919060010190610b73565b5b509050610b9c9190610bc4565b5090565b5080546000825560070290600052602060002090810190610bc19190610be9565b50565b610be691905b80821115610be2576000816000905550600101610bca565b5090565b90565b610c8891905b80821115610c84576000808201600090556001820160009055600282016000610c189190610c8b565b600382016000610c289190610c8b565b600482016000610c389190610c8b565b60058201600090556006820160006101000a81549060ff02191690556006820160016101000a81549073ffffffffffffffffffffffffffffffffffffffff021916905550600701610bef565b5090565b90565b50805460018160011615610100020316600290046000825580601f10610cb15750610cd0565b601f016020900490600052602060002090810190610ccf9190610bc4565b5b5056fea165627a7a7230582081f1e37ea9c17c269a8b34766626c0751fd83b79976f52f5dda8d353a96dbb7d0029",
  "source": "pragma solidity ^0.5.8;\r\n// pragma experimental ABIEncoderV2;\r\n\r\ncontract PropertyFactory {\r\n\r\n    struct Property {\r\n        uint256 price;\r\n        uint256 size;\r\n        string geoAddress;\r\n        string description;\r\n        string documents;\r\n        uint256 nbRooms;\r\n        bool selling;\r\n        address payable owner;\r\n    }\r\n\r\n    Property[] public properties;\r\n\r\n    // mettre en vente (non adapté de renvoyer un objet)\r\n    function post(uint256 _price, uint256 _size, string calldata _geoAddress,\r\n                  string calldata _description, string calldata _documents, uint256 _nbRooms) external returns (uint) {\r\n        properties.push(Property(\r\n            _price,\r\n            _size,\r\n            _geoAddress,\r\n            _description,\r\n            _documents,\r\n            _nbRooms,\r\n            true,\r\n            msg.sender\r\n        ));\r\n    }\r\n\r\n    // achat d'une property\r\n    function buy(uint256 _propertyId) external payable {\r\n        require(msg.value == properties[_propertyId].price, \"Erreur prix propriété\"); // vérif\r\n        properties[_propertyId].owner.transfer(msg.value); // transfert\r\n        properties[_propertyId].owner = msg.sender; // changement proprio\r\n        properties[_propertyId].selling = false; // plus en vente\r\n    }\r\n\r\n    // propr. de sender ?\r\n    function isMyProperty(uint256 _propertyId) external view returns (bool) {\r\n        return properties[_propertyId].owner == msg.sender;\r\n    }\r\n\r\n    // tous les ID des properties de sender\r\n    /*function getPropertiesIdsByOwner() external view returns(uint[] memory) {\r\n        uint[] memory result = new uint[](ownerPropertyCount[msg.sender]);\r\n        uint counter = 0;\r\n        for (uint i = 0; i < properties.length; i++) {\r\n            if (propertyToOwner[i] == msg.sender) {\r\n                result[counter] = i;\r\n                counter++;\r\n            }\r\n        }\r\n        return result;\r\n    }*/\r\n\r\n    function getNbProperties() external view returns (uint) {\r\n        return properties.length;\r\n    }\r\n\r\n    // propr. en vente\r\n    /*function getAvailableProperties() external view returns (Property[] memory) {\r\n        Property[] memory availableProperties;\r\n\r\n\t\tuint j = 0;\r\n        \r\n        for ( uint i = 0 ; i < properties.length ; i++ ) {\r\n            if (availableProperties[i].selling) {\r\n                availableProperties[j] = properties[i];\r\n\t\t\t\tj++;\r\n            }\r\n        }\r\n        return availableProperties;\r\n    }*/\r\n\r\n\tfunction clearAllProperties() external {\r\n\t\tdelete properties;\r\n\t}\r\n}\r\n",
  "sourcePath": "D:/Documents/ESGI/blockchain/projet/contracts/PropertyFactory.sol",
  "compiler": {
    "name": "solc",
    "version": "0.5.8+commit.23d335f2.Emscripten.clang"
  },
  "schemaVersion": "3.0.16",
  "updatedAt": "2019-12-05T15:24:01.187Z",
  "devdoc": {
    "methods": {}
  },
  "userdoc": {
    "methods": {}
  }
}